:020000040800F2
:10000000100400204D0F0008290F00082B0F0008D6
:100010002D0F00082F0F0008310F0008000000000E
:10002000000000000000000000000000330F000886
:10003000350F000800000000370F0008390F0008D6
:10004000790F00087D0F0008810F0008850F000858
:10005000890F00088D0F0008910F0008950F000808
:10006000990F00089D0F0008A10F0008A50F0008B8
:10007000A90F0008AD0F0008B10F0008B50F000868
:10008000B90F0008BD0F0008C10F0008C50F000818
:10009000C90F0008CD0F0008D10F0008D50F0008C8
:1000A000D90F0008DD0F0008E10F0008E50F000878
:1000B000E90F0008ED0F0008F10F0008F50F000828
:1000C000F90F0008FD0F00080110000805100008D6
:1000D000091000080D100008111000081510000884
:1000E000191000081D100008211000082510000834
:1000F000291000082D1000083110000835100008E4
:10010000391000083D100008411000084510000893
:10011000491000084D100008511000085510000843
:10012000591000085D1000086110000865100008F3
:10013000691000086D1000087110000875100008A3
:10014000791000087D100008811000088510000853
:10015000891000088D100008911000089510000803
:10016000991000089D100008A1100008A5100008B3
:10017000A9100008AD1000080000000000000000F9
:10018000B1100008B51000082DE9FC47050065D046
:10019000DFF87876DFF88466BC68F86800F003085A
:1001A0002878C10604F00C0448D524B10C2C08BFF3
:1001B000B8F1010F2CD13868810702D5A869002851
:1001C0004CD0396808074EBF396871680909286A38
:1001D00001F0F001814206D200F0DEFA00283DD1A4
:1001E00000F0F5F907E000F0F2F924B9286A00F010
:1001F000D3FA002832D100F086FABA6800F079FA12
:10020000DFF81006006800F01DFB010016D0D8E1F1
:10021000A86928B3396841F00101396000F034FB66
:1002200081463868810707D400F02EFBA0EB090057
:100230000328F6D30320C4E100F0C9F92878C107E8
:1002400056D5082C04D00C2C08BFB8F1030F18D1D8
:10025000386881034CD56868002849D10120B0E195
:10026000386840084000386000F00EFB814638686E
:100270008107E3D500F008FBA0EB09000328F6D3C3
:10028000D8E76868B0F5803F04D1386840F4803022
:10029000386011E0B0F5A02F386806D140F4802016
:1002A0003860396841F4803105E020F480303860EE
:1002B000396821F480213960686860B100F0E4FA9F
:1002C00081463868810313D400F0DEFAA0EB090000
:1002D0006528F6D3AEE700F0D7FA81463868810387
:1002E00006D500F0D1FAA0EB09006528F6D3A1E706
:1002F0002878810713D5042C04D00C2C08BFB8F142
:10030000020F22D13868410502D5E8680028A5D03F
:100310007868296920F0F85040EA01607860287810
:10032000010743D568690028706830D040F00100AB
:10033000706000F0A9FA80467068810736D400F03A
:10034000A3FA00F040F9F7D374E7E86878B13968A8
:1003500041F48071396000F097FA804638684105B1
:10036000D6D400F091FA00F02EF9F7D362E738689E
:1003700020F48070386000F087FA804638684105C4
:10038000CDD500F081FA00F01EF9F7D352E740080E
:100390004000706000F078FA80467068810705D5EB
:1003A00000F072FA00F00FF9F7D343E7287841071D
:1003B00067D5B86DC1004FF000080AD4B86D40F0A1
:1003C0008050B8654FF00108B86D00F08050009083
:1003D0000098DFF84C94D9F80000C10513D4D9F87F
:1003E000000040F48070C9F8000000F04DFA824629
:1003F000D9F80000C10506D400F046FAA0EB0A00C7
:100400000328F5D316E7A868012804D1306840F026
:100410000100306010E00528306806D140F004008B
:100420003060316841F0010105E040084000306073
:10043000316821F004013160A86841F2893960B166
:1004400000F022FA82463068810713D400F01CFACB
:10045000A0EB0A004845F6D3ECE600F015FA824618
:100460003068810706D500F00FFAA0EB0A00484576
:10047000F6D3DFE6B8F1000F03D0B86D20F080505E
:10048000B865A86A002800F09B80022878D1F86837
:10049000EA6A00F00301914201BF00F070012A6B8B
:1004A000521EB1EB021F1ED16A6B00F4FE41B1EB8C
:1004B000022F18D1A96B07290CBF0021012100F4DC
:1004C00000328A420FD1EA6B520800F4C001521E7A
:1004D000B1EB425F07D1296C490800F0C060491EAA
:1004E000B0EB416F48D00C2C4BD03868410101D49F
:1004F0003868C1003FF5B2AE386820F080703860CF
:1005000000F0C2F904463868810105D500F0BCF955
:10051000001B0328F7D38DE6F868DFF80813EA6AB2
:100520000840296B1043491E40EA0110EA6B696BD1
:10053000520840EA0120296C521E490840EA425004
:10054000491E40EA4160A96B090940EA4140F86050
:10055000386840F080703860F96841F08071F96067
:1005600000F092F904463868810129D400F08CF932
:10057000001B0328F7D35DE63868810120D4E7E744
:100580000C2C3FF46BAE386820F08070386039680E
:1005900011F0205F03D1F86880088000F860F968E6
:1005A000DFF884020140F96000F06EF90446386813
:1005B000810105D500F068F9001B0328F7D339E65F
:1005C0000020BDE8F687A0EB0800032870473868D4
:1005D00040F0080038603968286A21F0F0010143D2
:1005E00039607968E86921F47F4141EA0021796046
:1005F00070472DE9F0410400884658D0DFF82C629E
:10060000306800F00700404509D23168C90848EA5F
:10061000C1013160306800F00700404547D12078C3
:10062000DFF8E851C1072AD56068032802D129689C
:100630008A0108E0022802D129688A0303E0002821
:10064000296802D18A0702D431E04A052FD5A9686A
:10065000890840EA8100A86000F016F90746A868FA
:10066000616800F00C00B0EB810F08D000F00CF9CD
:10067000C01B41F289318842F1D3032037E0207852
:10068000810705D5AA68A06822F0F0020243AA609B
:10069000316801F0070188450BD23068C00848EA8C
:1006A000C0003060316801F00701414501D00120F0
:1006B0001DE02078410705D5AA68E06822F4E062D1
:1006C0000243AA602178080706D5A968206921F4A9
:1006D000605141EAC001A96000F015F8AA6800F075
:1006E00008F8BDE8F0414B48006800F0ABB8BDE841
:1006F000F0814F49C2F30312895C454A01F01F01A2
:10070000C8401060704770B5404A4A4B9068D66840
:100710000025002110F00C0006F00306464C03D023
:100720000C2812D1012E1AD115682E0704D43A4D87
:100730002E68C6F3032502E01568C5F303153F4E86
:1007400056F8255048B9294624E0042808BF214618
:1007500020D008281ED119461CE00C281AD1D068D8
:1007600000F00300022803D0032808BF1D4600E064
:100770002546D168D068D268C0F306204543C1F34E
:100780000210C2F34161401C491CB5FBF0F0490066
:10079000B0FBF1F1084670BD7CB5294E05463068C6
:1007A0000024C10002D500F075F80EE0306840F07A
:1007B00080503060316801F080510091009800F065
:1007C00069F8316821F080513160B0F5007F04D1C3
:1007D000802D0CD9A12D09D304E0802D88BF0324DE
:1007E00005D801D1022402E0702D00D101240F4868
:1007F0000168C90844EAC1010160006800F007000F
:10080000A04201D0012076BD002076BD001002403C
:100810000C000020080000209410024090100240BC
:10082000007000408C809DF9FFFFEEFE002002402A
:10083000400E000800127A000024F400500E000858
:100840005810024070B50E4E044630780025A0B115
:100850004FF47A710B4AB1FBF0F11068B0FBF1F084
:1008600000F092F848B9102C07D2002221464FF030
:10087000FF3000F06BF8B46000E00125284670BD41
:10088000000000200C00002001484068704700BFB5
:1008900000000020DFF87400006800F4C0607047BA
:1008A00010B5DFF86810B0F5007F086800F4C0608C
:1008B00019D1B0F5007F1FD00868DFF85420DFF8A9
:1008C000544020F4C06040F4007000F017F800E0DD
:1008D000401E4A69530501D50028F9D148694105F0
:1008E0000AD5032010BDB0F5806F05D0086820F44C
:1008F000C06040F480600860002010BD08603220B5
:1009000013684343B3FBF4F0401C70470070004091
:100910000C00002040420F000901020002D42448CC
:1009200081547047234B02F00F021A4402F8041C52
:100930007047214B19684FF6FF020002114000F486
:10094000E06008431D4908431860704770B51A4BB2
:100950001C68C4F302230124C3F10705052D2EBF33
:100960000F2504FA05F56D1E1E1D072E34BF00234A
:10097000DB1E2940994004FA03F3BDE870405B1E7A
:100980001A401143C8E7000010B5401EB0F1807F47
:1009900001D3012010BD0A4C60600F214FF0FF30E1
:1009A000FFF7BAFF0021A16007202060002010BDE2
:1009B00000E400E018ED00E00CED00E00000FA05B6
:1009C00010E000E02DE9F84F4FF00009734A744B36
:1009D0004FF00F0805460E4634E0724CA54214BF96
:1009E000072406248C4070493C4341F82C40C14305
:1009F000146801EA040C7468E40348BF40EA0C0C74
:100A0000C2F800C0546801EA040C7468A40348BF2B
:100A100040EA0C0CC2F804C0946801EA040C746843
:100A2000E40248BF40EA0C0CC2F808C0D46801EAEE
:100A3000040C7168890248BF40EA0C0CC2F80CC073
:100A400009F10109316831FA09F000F097800124B9
:100A500004FA09F414EA0100F2D04FEA490C032128
:100A600001FA0CF16FEA010E7168E443012918BF25
:100A7000022903D0112918BF122910D1A968F768DB
:100A80000EEA010107FA0CF73943A9606968776833
:100A9000C7F30017214007FA09F739436960716805
:100AA00001F00307032F07D1EF6AC1F3C0013C40F7
:100AB00001FA09F10C43EC62E968B4680EEA01013D
:100AC00004FA0CF42143E9604FEA89017468022CAE
:100AD00018BF122C12D14FEAD90405EB840401F09F
:100AE0001C07D4F820A008FA07FB2AEA0B0AD6F85C
:100AF00010B00BFA07F747EA0A0727622C680EEADC
:100B00000407347904F0030404FA0CF43C432C6029
:100B10007468E40094D51C6844F001041C604FEA3A
:100B2000990C1C6804F00104009401F00C01009C75
:100B30001D4C54F82C4008FA01F724EA0707B5F1D8
:100B4000904F08BF002418D0184CA54208BF0124BC
:100B500013D0174CA54208BF02240ED0154CA54255
:100B600008BF032409D0144CA54208BF042404D0B4
:100B7000124CA5427FF431AF052433E7BDE8F18F75
:100B80000AB18161704781627047426901EA0203DC
:100B9000914341EA03418161704700000004014034
:100BA000601002400018004808000140000400489E
:100BB00000080048000C00480010004800140048DD
:100BC00010B586B000F09CF800F04EF81422002119
:100BD00001A800F0A4F81E481E4C016841F0010174
:100BE0000160026802F0010200920099026842F07E
:100BF000020202600022006800F002000090202142
:100C000000984FF09040FFF7BBFF00224FF4804167
:100C10002046FFF7B5FF202100F01EF84FF090406E
:100C2000FFF7D0FE4FF4804100F016F82046FFF7A2
:100C3000C9FE20214FF09040FFF7A7FF4FF48041FD
:100C40002046FFF7A2FF4FF47A7000F073F8F0E748
:100C50004C10024000040048019101220021039140
:100C60000491029201A9704780B596B044220021F8
:100C700005A800F054F814220021684600F04FF84F
:100C800001210B91002260210D910C920121109104
:100C90001191022228210F92129110200590072213
:100CA000022113921491159105A8FFF76DFA0F20F8
:100CB00003210090019100220292039204920421E8
:100CC0006846FFF796FC4FF40070FFF7E9FD17B098
:100CD00000BD30B40EE00268436802440830DC070F
:100CE00044BFA9F10104E31852F8045B43F8045B24
:100CF000091FF9D150F8041B0029ECD130BC704712
:100D0000032010B5FFF715FE0020FFF79BFD002420
:100D1000002814BF012400F021F8204610BD10B5B2
:100D2000044610460A460146204600F02FF82046A9
:100D300010BD000038B50446FFF7A6FD14F1010F01
:100D4000054602D0044801786418FFF79DFD401B5A
:100D5000A042FAD331BD00BF000000200A4881B094
:100D6000816841F001018160816801F00101009119
:100D70000099026842F080520260006800F08050E2
:100D80000090009801B070475810024062F30F22A3
:100D900062F31F42401810F0030308D0C91A1FD392
:100DA000DB0748BF00F8012D28BF20F8022D1300F3
:100DB00030B414461546103928BF20E93C00FAD853
:100DC000490728BF20E90C0048BF40F8042D8900DE
:100DD00028BF20F8022D48BF00F8012D30BC704715
:100DE000C91818BF00F8012DCB0728BF00F8012D46
:100DF000704700000E48016841F470010160002254
:100E00000C49086840F0010008608A604FF4805285
:100E10000B68094803400B60CA6000200B68074A52
:100E200023F480230B6088614FF0006111607047EC
:100E300088ED00E000100240FFFFF6EA08ED00E058
:100E4000000000000000000001020304060708097A
:100E5000A0860100400D0300801A060000350C003A
:100E600040420F0080841E0000093D0000127A00FD
:100E70000024F40000366E010048E801006CDC023A
:100E800010B5074979441831064C7C44163404E007
:100E90000A68081D114488470146A142F8D110BDD7
:100EA0002C0000003C0000004EF68851CEF20001FC
:100EB000086840F470000860BFF34F8FBFF36F8F76
:100EC0004FF00070E1EE100A7047000007FEFFFFD0
:100ED000100000008800000000000020000000005A
:100EE00000F00DF8002801D0FFF7CAFFAFF3008033
:100EF0000020AFF30080FFF763FE00F002F801204E
:100F0000704700F001B800000746384600F002F8CC
:100F1000FBE7000080B5AFF30080024A1100182003
:100F2000ABBEFBE7260002007047FEE7FEE7FEE7E8
:100F3000FEE770477047704700F000B8024841680C
:100F400002788A18426070470000002001488047FC
:100F500001480047F50D00086D0F00080100000072
:100F6000000000001000000000093D00AFF3008009
:100F7000FFF79AFFFFF7B4FFFFF7FEBFFFF7FEBFD3
:100F8000FFF7FEBFFFF7FEBFFFF7FEBFFFF7FEBF95
:100F9000FFF7FEBFFFF7FEBFFFF7FEBFFFF7FEBF85
:100FA000FFF7FEBFFFF7FEBFFFF7FEBFFFF7FEBF75
:100FB000FFF7FEBFFFF7FEBFFFF7FEBFFFF7FEBF65
:100FC000FFF7FEBFFFF7FEBFFFF7FEBFFFF7FEBF55
:100FD000FFF7FEBFFFF7FEBFFFF7FEBFFFF7FEBF45
:100FE000FFF7FEBFFFF7FEBFFFF7FEBFFFF7FEBF35
:100FF000FFF7FEBFFFF7FEBFFFF7FEBFFFF7FEBF25
:10100000FFF7FEBFFFF7FEBFFFF7FEBFFFF7FEBF14
:10101000FFF7FEBFFFF7FEBFFFF7FEBFFFF7FEBF04
:10102000FFF7FEBFFFF7FEBFFFF7FEBFFFF7FEBFF4
:10103000FFF7FEBFFFF7FEBFFFF7FEBFFFF7FEBFE4
:10104000FFF7FEBFFFF7FEBFFFF7FEBFFFF7FEBFD4
:10105000FFF7FEBFFFF7FEBFFFF7FEBFFFF7FEBFC4
:10106000FFF7FEBFFFF7FEBFFFF7FEBFFFF7FEBFB4
:10107000FFF7FEBFFFF7FEBFFFF7FEBFFFF7FEBFA4
:10108000FFF7FEBFFFF7FEBFFFF7FEBFFFF7FEBF94
:10109000FFF7FEBFFFF7FEBFFFF7FEBFFFF7FEBF84
:1010A000FFF7FEBFFFF7FEBFFFF7FEBFFFF7FEBF74
:0810B000FFF7FEBFFFF7FEBFD2
:0400000508000F6D73
:00000001FF
